:060000008031752B0000A9
:0800080083018031200077081C
:10001000A0007808A1007908A2007A08A300850151
:1000200091308400801E1628911A1F282008F7009E
:100030002108F8002208F9002308FA00090080319D
:100040002128911E2128230019082000E90091127F
:100050008031162821000F1222000F1621008F1266
:1000600022008F1621000F1322000F1321008F1181
:1000700020008F11080021000F1122000F15210010
:100080008F1022008F1021008E1020008E1008008B
:1000900021000F1222000F1621008F1222008F1252
:1000A00021000F1322000F1721008F1120008F1540
:1000B000080021000F1122000F1121008F102200D3
:1000C0008F1421008E1020008E1408006008B03CB0
:1000D000031872285D08933C031872280F146930C6
:1000E000E10074280F10E1018031112C8F1D7D2853
:1000F0008E187D281030E2008C288F1D84288E1CDD
:1001000084281130E2008C288F198B288E1C8B28B4
:100110000130E2008C28E2018031122C21000E1106
:1001200022000E112400110821002908240091004A
:10013000140C031C98281108F80011082100280845
:1001400024009100140C031CA2281108F7002100C0
:100150000E1122000E152000080021002308A9001E
:100160002208A80020008E202100A9010130A8004B
:1001700020008E2078082100A5007708A400A600A2
:1001800025080F39A7001A30F700F70BC528000023
:100190002608F8002708F900200008008330210015
:1001A000A3003030A2002000AD207908B10078080B
:1001B000B00031082100A200A30122082000BD00E8
:1001C0003008BE0087302100A3003030A20020009C
:1001D000AD207908B5007808B40035082100A200E8
:1001E000A30122082000BF003408C0008B3021008A
:1001F000A3003030A2002000AD207908B9007808B3
:10020000B80039082100A200A30122082000C10083
:100210003808C2008F302100A3003030A200200037
:10022000AD207908B3007808B20033082100A2009D
:10023000A30122082000C3003208C4009730210027
:10024000A3003030A2002000AD207908BB00780860
:10025000BA003B082100A200A30122082000C5002B
:100260003A08C6009F302100A3003030A2002000D1
:10027000AD207908B7007808B60037082100A20041
:10028000A30122082000C7003608C8008031172CBF
:100290000E1121002308A9002208A80020008E20AA
:1002A0002100A9010130A80020008E20780821003B
:1002B000A5007708A400A60025080F39A700200094
:1002C0000E151A30F700F70B6329000021002608ED
:1002D000F8002708F90020000800A3302100A3003F
:1002E0003030A200200048217908A7007808A60035
:1002F00027082100A200A30122082000C900260827
:10030000CA00A7302100A3003030A20020004821FD
:100310007908AB007808AA002B082100A200A301ED
:1003200022082000CB002A08CC00AB302100A3001B
:100330003030A200200048217908AF007808AE00D4
:100340002F082100A200A30122082000CD002E08C2
:10035000CE00AF302100A3003030A20020004821A1
:100360007908A9007808A80029082100A200A301A3
:1003700022082000CF002808D000B7302100A300B9
:100380003030A200200048217908AD007808AC0088
:100390002D082100A200A30122082000D1002C0872
:1003A000D2008031182C2100250DF700F70DFC300C
:1003B000F7051D08833977049D000F30F8001F08EA
:1003C000F03978049F001A30F700F70BE529000098
:1003D0009D149D18E9291B08A6001C08A700270CDE
:1003E000FA00260CF900FA0CF90CFA0CF90CFA0CCC
:1003F000F90C7908A8002808F8002000080020302F
:1004000085005530840000080319142A0530F800CF
:10041000F701F70B092AF80B082A2E30F700F70B23
:100420000F2A122A800B062A08002100A5012000AD
:10043000D3217808D30001302100A5002000D3216A
:100440007808D40002302100A5002000D3217808CC
:10045000D50003302100A5002000D3217808D60064
:1004600005302100A5002000D3217808D7000630F0
:100470002100A5002000D3217808D80008302100F1
:10048000A5002000D3217808D90009302100A5005B
:100490002000D3217808DA002100A2012208633C61
:1004A000031C742A2C30F8001D08833978049D0041
:1004B0000F30F8001F08F03978049F000D30F70066
:1004C000F70B602A9D149D18632A1C08FA001B086C
:1004D0002000E3077A08E43D01302100A500200058
:1004E000FF212100A20A4E2A200064082100A60054
:1004F000200063082100A500A8016430A700F801CE
:10050000F901F701FA012808031D892A27080319B0
:10051000A32A1030A9000310A50DA60DF70DFA0DA2
:1005200028087A02031D962A27087702031C9F2AAF
:100530002708F702031CFA032808FA020314F80D2F
:10054000F90DA90B8B2A79082000E4007808E30054
:1005500064082100A500A60125082000DB0063082F
:10056000DC00E401E3010A302100A5002000D321D2
:100570007808DD002100A3012308633C031CE52A61
:100580003030F8001D08833978049D000F30F800E2
:100590001F08F03978049F000D30F700F70BCE2AC2
:1005A0009D149D18D12A1C08FA001B082000E5079D
:1005B0007A08E63D0030E73DE83D01302100A50026
:1005C0002000FF212100A30ABC2A83102000680814
:1005D0002100A800200067082100A700200066086D
:1005E0002100A600200065082100A500AC01AB0198
:1005F000AA016430A9008318012B203085005F30E8
:100600008400F701F801F901FA01AF01B001B1016D
:10061000B2012C082B042A04290403193F2B203093
:10062000B3000310A50DA60DA70DA80DAF0DB00DBD
:10063000B10DB20D2C083202031D282B2B083102FC
:10064000031D282B2A083002031D282B29082F02FE
:10065000031C392B2908AF022A08031C2A0FB002F9
:100660002B08031C2B0FB1022C08031C2C0FB20209
:100670000314F70DF80DF90DFA0DB30B112B2F081C
:1006800080003008813F3108823F3208833F7A087A
:100690002000E8007908E7007808E6007708E50020
:1006A00066082100A600200067082100A70020009E
:1006B00068082100A800A90126082000DE006508BE
:1006C000DF00E801E701E601E5010D302100A500AA
:1006D0002000D3217808E0008031192C111E6E2BE8
:1006E00023009A0080312000312C7A3021009900BB
:1006F0002000A401A50123009F15A0309B0001301C
:100700009C00A6309E0090309D0024009512403041
:100710009400FF3092003A30950022009D129D1106
:100720001D1221008E120E1622000E1521000E1130
:100730008E112000E401E301E801E701E601E50193
:1007400023008C018D018E018F0190012200920106
:100750009101B72B273440343C3400340734403403
:100760006934003401340034A034003400340330E0
:100770008500AA30840085171200F700003A03199B
:10078000D12B1200F800F81BC92B0F39870012007B
:100790008600781B1200781F12001E00F70BCB2B6F
:1007A000BC2B33302000BC0021008F1322008F1798
:1007B00021000F1020000F10053023009100951329
:1007C000151413082000A5000A302300910095138A
:1007D000151413082000A4002508083C0319F72B62
:1007E0002408053C0319F72B2A203B20F92B48202D
:1007F000592021001E169E161E139E171D141E1032
:100800009E101E112F3023008C00073090003F30C7
:100810008D0002308F0021009116C0308B04200023
:10082000662876286908613C031D362CCE286D2980
:10083000152AE9010A302100A5002000FF2121002E
:10084000A1012108263C031C342C1C302107840004
:10085000203085000318850A0008A2002208200025
:100860006E2B2100A10A212CAC2C20006908173C1A
:10087000031D712CE9010A302100A5002000FF2191
:10088000482059200B08F7008B13053023009100F6
:10089000083093009513151555309600AA30960030
:1008A00095149518512C151177088B0408302000E9
:1008B000A5000B08F7008B130A30230091000530C8
:1008C00093009513151555309600AA30960095148F
:1008D0009518682C151177088B0405302000A400AA
:1008E000AB2C6908183C031DAB2CE9010A30210030
:1008F000A5002000FF212A203B200B08F7008B13C6
:1009000005302300910001309300951315155530E3
:100910009600AA309600951495188C2C151177081E
:100920008B0401302000A5000B08F7008B130A3060
:100930002300910001309300951315155530960052
:10094000AA30960095149518A32C151177088B04DE
:0C09500001302000A40021000F2C6300E7
:020000040001F9
:04000E009C3FFF1EF6
:00000001FF
;PIC16F1789
;CRC=BEC3  CREATED="10-Jun-21 18:48"
